{
  "_format": "hh-sol-artifact-1",
  "contractName": "WavePortal",
  "sourceName": "contracts/WavePortal.sol",
  "abi": [
    {
      "inputs": [],
      "stateMutability": "nonpayable",
      "type": "constructor"
    },
    {
      "inputs": [],
      "name": "getTotalWaves",
      "outputs": [
        {
          "internalType": "uint256",
          "name": "",
          "type": "uint256"
        }
      ],
      "stateMutability": "view",
      "type": "function"
    },
    {
      "inputs": [],
      "name": "printWavers",
      "outputs": [],
      "stateMutability": "view",
      "type": "function"
    },
    {
      "inputs": [
        {
          "internalType": "uint256",
          "name": "",
          "type": "uint256"
        }
      ],
      "name": "senders",
      "outputs": [
        {
          "internalType": "address",
          "name": "",
          "type": "address"
        }
      ],
      "stateMutability": "view",
      "type": "function"
    },
    {
      "inputs": [],
      "name": "wave",
      "outputs": [],
      "stateMutability": "nonpayable",
      "type": "function"
    }
  ],
  "bytecode": "0x608060405234801561001057600080fd5b5061003c604051806060016040528060248152602001610a726024913961004160201b6102c41760201c565b6101c4565b6100dd816040516024016100559190610142565b6040516020818303038152906040527f41304fac000000000000000000000000000000000000000000000000000000007bffffffffffffffffffffffffffffffffffffffffffffffffffffffff19166020820180517bffffffffffffffffffffffffffffffffffffffffffffffffffffffff83818316178352505050506100e060201b60201c565b50565b60008151905060006a636f6e736f6c652e6c6f679050602083016000808483855afa5050505050565b600061011482610164565b61011e818561016f565b935061012e818560208601610180565b610137816101b3565b840191505092915050565b6000602082019050818103600083015261015c8184610109565b905092915050565b600081519050919050565b600082825260208201905092915050565b60005b8381101561019e578082015181840152602081019050610183565b838111156101ad576000848401525b50505050565b6000601f19601f8301169050919050565b61089f806101d36000396000f3fe608060405234801561001057600080fd5b506004361061004c5760003560e01c80636fe15b44146100515780639977c78a1461005b5780639a2cdc081461008b578063be5c8a2d146100a9575b600080fd5b6100596100b3565b005b61007560048036038101906100709190610572565b610170565b60405161008291906105f2565b60405180910390f35b6100936101af565b6040516100a091906106cd565b60405180910390f35b6100b16101fa565b005b60016000808282546100c59190610704565b925050819055506001339080600181540180825580915050600190039060005260206000200160009091909190916101000a81548173ffffffffffffffffffffffffffffffffffffffff021916908373ffffffffffffffffffffffffffffffffffffffff16021790555061016e6040518060400160405280600d81526020017f25732068617320776176656421000000000000000000000000000000000000008152503361035d565b565b6001818154811061018057600080fd5b906000526020600020016000915054906101000a900473ffffffffffffffffffffffffffffffffffffffff1681565b60006101f26040518060400160405280601781526020017f5765206861766520256420746f74616c207761766573210000000000000000008152506000546103f9565b600054905090565b60005b6001805490508110156102c1576102ae6040518060400160405280600d81526020017f57617665722025643a2025732100000000000000000000000000000000000000815250826001848154811061027e577f4e487b7100000000000000000000000000000000000000000000000000000000600052603260045260246000fd5b9060005260206000200160009054906101000a900473ffffffffffffffffffffffffffffffffffffffff16610495565b80806102b9906107c9565b9150506101fd565b50565b61035a816040516024016102d8919061060d565b6040516020818303038152906040527f41304fac000000000000000000000000000000000000000000000000000000007bffffffffffffffffffffffffffffffffffffffffffffffffffffffff19166020820180517bffffffffffffffffffffffffffffffffffffffffffffffffffffffff8381831617835250505050610534565b50565b6103f5828260405160240161037392919061062f565b6040516020818303038152906040527f319af333000000000000000000000000000000000000000000000000000000007bffffffffffffffffffffffffffffffffffffffffffffffffffffffff19166020820180517bffffffffffffffffffffffffffffffffffffffffffffffffffffffff8381831617835250505050610534565b5050565b610491828260405160240161040f92919061065f565b6040516020818303038152906040527f9710a9d0000000000000000000000000000000000000000000000000000000007bffffffffffffffffffffffffffffffffffffffffffffffffffffffff19166020820180517bffffffffffffffffffffffffffffffffffffffffffffffffffffffff8381831617835250505050610534565b5050565b61052f8383836040516024016104ad9392919061068f565b6040516020818303038152906040527fe3849f79000000000000000000000000000000000000000000000000000000007bffffffffffffffffffffffffffffffffffffffffffffffffffffffff19166020820180517bffffffffffffffffffffffffffffffffffffffffffffffffffffffff8381831617835250505050610534565b505050565b60008151905060006a636f6e736f6c652e6c6f679050602083016000808483855afa5050505050565b60008135905061056c81610852565b92915050565b60006020828403121561058457600080fd5b60006105928482850161055d565b91505092915050565b6105a48161075a565b82525050565b60006105b5826106e8565b6105bf81856106f3565b93506105cf818560208601610796565b6105d881610841565b840191505092915050565b6105ec8161078c565b82525050565b6000602082019050610607600083018461059b565b92915050565b6000602082019050818103600083015261062781846105aa565b905092915050565b6000604082019050818103600083015261064981856105aa565b9050610658602083018461059b565b9392505050565b6000604082019050818103600083015261067981856105aa565b905061068860208301846105e3565b9392505050565b600060608201905081810360008301526106a981866105aa565b90506106b860208301856105e3565b6106c5604083018461059b565b949350505050565b60006020820190506106e260008301846105e3565b92915050565b600081519050919050565b600082825260208201905092915050565b600061070f8261078c565b915061071a8361078c565b9250827fffffffffffffffffffffffffffffffffffffffffffffffffffffffffffffffff0382111561074f5761074e610812565b5b828201905092915050565b60006107658261076c565b9050919050565b600073ffffffffffffffffffffffffffffffffffffffff82169050919050565b6000819050919050565b60005b838110156107b4578082015181840152602081019050610799565b838111156107c3576000848401525b50505050565b60006107d48261078c565b91507fffffffffffffffffffffffffffffffffffffffffffffffffffffffffffffffff82141561080757610806610812565b5b600182019050919050565b7f4e487b7100000000000000000000000000000000000000000000000000000000600052601160045260246000fd5b6000601f19601f8301169050919050565b61085b8161078c565b811461086657600080fd5b5056fea264697066735822122069adcfc25c028c9cfc60b6b9bf6dee125e62c720a8cdd44d9dabcda65203b5b064736f6c63430008000033596f20796f2c204920616d206120636f6e747261637420616d204920616d20736d617274",
  "linkReferences": {},
  "deployedLinkReferences": {}
}